:020000040000FA
:100000008312860185018316003086001F3085002B
:1000100083120C201220092818201E2024202A20B8
:10002000302008004F205220552058205B20080027
:10003000051C080005181A2836200928851C080008
:100040008518202839200928051D080005192628AB
:100050003C200928851D080085192C283F200928E7
:10006000051E0800051A3228422009280130A30085
:1000700008000230A30008000430A3000800083084
:10008000A30008001030A3000800A3010800A50188
:100090000800A4010800A601080086010800231832
:1000A0005E200800A31862200800231966200800BB
:1000B000A3196F200800231A752008004520A50AFF
:1000C000862008004520A40A8A200800452024082C
:1000D0002502031D031C7B20A6008E20080045205E
:1000E00025082407A6008E20080045204D20472023
:1000F00049204B2008007E20030108004520FF30E6
:10010000860092200030860092207E284D2025080F
:10011000860008004D202408860008004D2026088F
:10012000860008002030A200A20B972808009A2021
:100130000C209428E730A0000430A100A00BA128D7
:08014000A10B9E28A328080072
:04014800003400344B
:02400E00F23F7F
:00000001FF
